:100000000C9454000C9473000C9473000C947300C3
:100010000C9473000C9473000C9473000C94730094
:100020000C9473000C9473000C9473000C94730084
:100030000C9473000C942C020C9473000C947300B9
:100040000C9473000C9473000C9473000C94730064
:100050000C9473000C9473000C9473000C94730054
:100060000C9473000C9473000C9473000C94730044
:100070000C9473000C9473000C9473000C94730034
:100080000C9473000C9473000C947300E104E60468
:10009000050513052E053C055705650580058E05EC
:1000A000A905B705D205E00511241FBECFEFD0E4A6
:1000B000DEBFCDBF11E0A0E0B1E0E6E4F4E100E096
:1000C0000BBF02C007900D92A432B107D9F721E00F
:1000D000A4E2B1E001C01D92A036B207E1F70E9490
:1000E000FC060C94210A0C940000CF93DF9300D0FF
:1000F0001F92CDB7DEB789836A834B838B818823B8
:1001000071F08A81282F30E081E090E002C0880FF2
:10011000991F2A95E2F7982F8981892B0EC08A8131
:10012000282F30E081E090E002C0880F991F2A95C7
:10013000E2F7982F9095898189230F900F900F9067
:10014000DF91CF910895CF93DF9300D0CDB7DEB785
:1001500089836A838A81282F30E081E090E002C0A1
:10016000880F991F2A95E2F7982F898189230F908C
:100170000F90DF91CF9108950F931F93CF93DF934B
:10018000CDB7DEB708E210E040E064E08FEF0E94F8
:100190007500F8018083000086E290E0FC01808118
:1001A000809560E00E94A300882311F081E3D3C012
:1001B00086E290E0FC018081809561E00E94A300CE
:1001C000882311F084E3C7C086E290E0FC018081BF
:1001D000809562E00E94A300882311F087E3BBC0F2
:1001E00086E290E0FC018081809563E00E94A3009C
:1001F000882311F08AE2AFC008E210E040E065E039
:100200008FEF0E947500F8018083000086E290E085
:10021000FC018081809560E00E94A300882311F09A
:1002200082E399C086E290E0FC018081809561E0E4
:100230000E94A300882311F085E38DC086E290E040
:10024000FC018081809562E00E94A300882311F068
:1002500088E381C086E290E0FC018081809563E0C4
:100260000E94A300882311F080E375C008E210E02B
:1002700040E066E08FEF0E947500F8018083000087
:1002800086E290E0FC018081809560E00E94A300FE
:10029000882311F083E35FC086E290E0FC01808157
:1002A000809561E00E94A300882311F086E353C08B
:1002B00086E290E0FC018081809562E00E94A300CC
:1002C000882311F089E347C086E290E0FC01808139
:1002D000809563E00E94A300882311F083E23BC075
:1002E00008E210E040E067E08FEF0E947500F8013F
:1002F0008083000086E290E0FC018081809560E0D0
:100300000E94A300882311F081E425C086E290E0DA
:10031000FC018081809561E00E94A300882311F098
:1003200082E419C086E290E0FC018081809562E061
:100330000E94A300882311F083E40DC086E290E0C0
:10034000FC018081809563E00E94A300882311F066
:1003500084E401C080E0DF91CF911F910F91089557
:10036000CF93DF9300D000D0CDB7DEB769837A8317
:100370008B839C8389819A81AB81BC8180930001AE
:1003800090930101A0930201B093030180910001B9
:1003900090910101A0910201B09103018093250188
:1003A00090932601A0932701B093280100000F909D
:1003B0000F900F900F90DF91CF910895CF93DF931F
:1003C000CDB7DEB781E890E02BE0FC01208388E820
:1003D00090E02DE730E0FC01318320838FE690E050
:1003E00022E0FC01208384E890E0FC01118210826D
:1003F0008091000190910101A0910201B09103014F
:100400008093250190932601A0932701B0932801A2
:100410008FE590E02FE530E0F90120812068FC01B4
:1004200020830000DF91CF910895CF93DF93CDB764
:10043000DEB781E890E0FC0110820000DF91CF91EF
:100440000895CF93DF93CDB7DEB781E08093240189
:100450000000DF91CF9108951F920F9200905F00EE
:100460000F92112400905B000F922F933F934F93B4
:100470005F936F937F938F939F93AF93BF93EF930C
:10048000FF93CF93DF93CDB7DEB780912501909195
:100490002601A0912701B09128010197A109B10976
:1004A0008093250190932601A0932701B093280102
:1004B0008091250190912601A0912701B0912801FA
:1004C000892B8A2B8B2B91F40E94210280910001B1
:1004D00090910101A0910201B09103018093250147
:1004E00090932601A0932701B09328010000DF918B
:1004F000CF91FF91EF91BF91AF919F918F917F919C
:100500006F915F914F913F912F910F9000925B00FF
:100510000F9000925F000F901F901895CF93DF937C
:10052000CDB7DEB72C970FB6F894DEBF0FBECDBFA8
:100530006D837E838F83988729873A874B875C8773
:100540008D819E81AF81B88529853A854B855C85F3
:10055000BC01CD010E946208DC01CB0189839A8332
:10056000AB83BC8389819A81AB81BC81892B8A2B27
:100570008B2B29F489859A85AB85BC8511C089852B
:100580009A85AB85BC858D839E83AF83B88789812F
:100590009A81AB81BC8189879A87AB87BC87D0CF92
:1005A000BC01CD012C960FB6F894DEBF0FBECDBFB7
:1005B000DF91CF910895CF93DF9300D01F92CDB7F5
:1005C000DEB789837B836A8389818A3031F48A81AB
:1005D0009B81BC018DE00E94DB0280EC90E0FC017D
:1005E0008081882F90E080729927892BB1F386EC67
:1005F00090E02981FC01208380E090E00F900F9033
:100600000F90DF91CF910895CF93DF93CDB7DEB7F1
:100610008AE790E02AE730E0F9012081206EFC01B2
:1006200020830000DF91CF9108950F931F93CF9304
:10063000DF9300D000D0CDB7DEB769837A838B8398
:100640009C8380912E0190912F01A0913001B09157
:1006500031019C01AD0169817A818B819C810E946D
:100660008D08882309F477C020E030E0A901698172
:100670007A818B819C810E948D08882351F481E9C5
:1006800090E021E930E0F90120812870FC0120830D
:1006900009C081E990E021E930E0F901208123607F
:1006A000FC01208328E539E344E75FE369817A812F
:1006B0008B819C810E948D08882344F488E990E016
:1006C0002FEF3FEFFC013183208334C020E034E280
:1006D00044EF56E469817A818B819C810E94AF0945
:1006E000181634F488E990E0FC011182108222C0CF
:1006F00008E910E020E030E040E053E469817A81CD
:100700008B819C810E94B409DC01CB019C01AD016D
:1007100060E074E284EF9AE40E949208DC01CB016D
:10072000BC01CD010E940409DC01CB010197F80155
:100730009183808384E990E0FC0111821082898199
:100740009A81AB81BC8180932E0190932F01A0935D
:100750003001B093310100000F900F900F900F9077
:10076000DF91CF911F910F910895CF93DF93CDB774
:10077000DEB780E990E020E4FC01208381E990E08D
:100780002BE0FC01208360E070E0CB010E941503A8
:100790000000DF91CF910895CF93DF93CDB7DEB7FF
:1007A00080E990E0FC01108281E990E0FC01108278
:1007B0000000DF91CF910895CF93DF9300D0CDB7A4
:1007C000DEB79A83898389819A81009719F001970E
:1007D00031F00DC081E090E09A83898308C00E94C7
:1007E000BC0080935E0180915E0180935F010000F8
:1007F0000F900F90DF91CF910895CF93DF9300D0AA
:10080000CDB7DEB79A83898389819A818230910539
:1008100049F1833091052CF4009779F0019791F01C
:10082000ADC08430910509F46FC0843091050CF49B
:1008300042C0059709F493C0A1C081E090E09A837B
:1008400089839CC080E290E0FC01808188232CF0A9
:1008500082E090E09A83898391C081E090E09A835E
:1008600089838CC080912C018530C8F480912D0142
:10087000882F90E0880F991F880F991F8E5E9E4FDA
:10088000FC0180819181A281B381BC01CD010E94D4
:10089000150380912C018F5F80932C016FC0109203
:1008A0002C0180912D018F5F80932D0183E090E0DA
:1008B0009A83898363C080912C018530C8F480912C
:1008C0002D01882F90E0880F991F880F991F8E5E49
:1008D0009E4FFC0180819181A281B381BC01CD0139
:1008E0000E94150380912C018F5F80932C0146C0DC
:1008F00010922C0180912D018F5F80932D0184E057
:1009000090E09A8389833AC080912C018530C8F4A5
:1009100080912D01882F90E0880F991F880F991FD3
:100920008E5E9E4FFC0180819181A281B381BC01CA
:10093000CD010E94150380912C018F5F80932C01C3
:100940001DC010922C0110922D0160E070E0CB01CF
:100950000E94150385E090E09A8389830FC083E2AB
:1009600090E0FC01808188232CF085E090E09A8360
:10097000898304C081E090E09A83898389819A8188
:100980000F900F90DF91CF910895CF93DF9300D018
:10099000CDB7DEB79A83898389819A81092E000CAD
:1009A000AA0BBB0B40E050E02DE030E0841B950B20
:1009B0002817390708F41DC18A5B9F4FFC010C946E
:1009C000840881E090E09A83898313C185E290E0F6
:1009D000FC01108280915F01882329F481E090E07E
:1009E0009A83898306C180915F01833229F081E077
:1009F00090E09A838983FDC080915F01833229F45E
:100A000082E090E09A838983F4C080915F01833211
:100A100029F482E090E09A838983EBC083E090E040
:100A20009A838983E6C080915F01882329F483E05B
:100A300090E09A838983DDC080915F01813329F042
:100A400081E090E09A838983D4C080915F018133F3
:100A500029F484E090E09A838983CBC080915F0180
:100A6000813329F484E090E09A838983C2C085E0D1
:100A700090E09A838983BDC080915F01882329F427
:100A800085E090E09A838983B4C080915F018233CE
:100A900029F081E090E09A838983ABC080915F0167
:100AA000823329F486E090E09A838983A2C0809102
:100AB0005F01823329F486E090E09A83898399C0AC
:100AC00087E090E09A83898394C080915F018823B6
:100AD00029F487E090E09A8389838BC080915F013D
:100AE000833329F081E090E09A83898382C08091EA
:100AF0005F01833329F488E090E09A83898379C089
:100B000080915F01833329F488E090E09A838983A0
:100B100070C089E090E09A8389836BC080915F0107
:100B2000882329F489E090E09A83898362C08091C8
:100B30005F01843329F081E090E09A83898359C072
:100B400080915F01843329F48AE090E09A8389835D
:100B500050C080915F01843329F48AE090E09A8349
:100B6000898347C08BE090E09A83898342C080915B
:100B70005F01882329F48BE090E09A83898339C050
:100B800080915F01853329F081E090E09A83898329
:100B900030C080915F01853329F48CE090E09A8326
:100BA000898327C080915F01853329F48CE090E030
:100BB0009A8389831EC08DE090E09A83898319C04F
:100BC00085E290E021E0FC01208383E290E0FC01DB
:100BD000808188234CF085E290E0FC01108281E066
:100BE00090E09A83898305C08DE090E09A838983A1
:100BF000000089819A810F900F90DF91CF91089525
:100C0000CF93DF9300D01F92CDB7DEB79B838A834B
:100C10008A819B81892B19F41B821A8203C01B8253
:100C20001A8200008A819B81892B61F480912A01BC
:100C3000882F90E0880F991F982F80912901892B88
:100C40008983000085E290E02981FC0120838A816C
:100C50009B810F900F900F90DF91CF910895CF93CC
:100C6000DF9300D0CDB7DEB79A83898389819A81DB
:100C7000009719F0019761F016C090912B0181E067
:100C8000992309F080E0882F90E09A8389830EC031
:100C900090912B0181E0992309F080E0882F90E06A
:100CA0009A83898303C01A821982000089819A81FC
:100CB000009759F0019751F49091290181E099230F
:100CC00009F080E08093290101C0000089819A81A8
:100CD0000F900F90DF91CF910895CF93DF9300D0C5
:100CE000CDB7DEB79A83898389819A81009719F0FD
:100CF000019761F016C090912B0181E0992309F0D2
:100D000080E0882F90E09A8389830EC090912B0118
:100D100081E0992309F080E0882F90E09A8389830D
:100D200003C01A821982000089819A81009759F0C4
:100D3000019751F490912A0181E0992309F080E014
:100D400080932A0101C0000089819A810F900F9041
:100D5000DF91CF910895CF93DF9300D01F92CDB74D
:100D6000DEB79B838A8380E290E0FC018081882F3C
:100D700090E08170992721E0892B09F020E02983F8
:100D80008A819B818130910579F08230910589F0CB
:100D9000892BC9F481E09981913009F080E0882F96
:100DA00090E09B838A8312C082E090E09B838A83D9
:100DB0000DC081E09981992309F480E0882F90E0AB
:100DC0009B838A8303C01B821A8200008A819B81D5
:100DD000019749F490912B0181E0992309F080E07B
:100DE00080932B0101C000008A819B810F900F909E
:100DF0000F90DF91CF9108950F931F93CF93DF93BF
:100E0000CDB7DEB72C970FB6F894DEBF0FBECDBFBF
:100E10001B8281E290E0FC01108282E290E02FEFE1
:100E2000FC01208384E290E02BE7FC01208385E233
:100E300090E020E8FC01208387E290E020EFFC01B5
:100E4000208388E290E02FE0FC01208386E0EEE141
:100E5000F1E0DE01179601900D928A95E1F783E0AB
:100E600090E09D838C838FEF8E831092320184E615
:100E700090E0A0E0B0E08093330190933401A09320
:100E80003501B09336018091330190913401A091E6
:100E90003501B09136018093370190933801A093CA
:100EA0003901B0933A018CED93E090933C0180932B
:100EB0003B0110923D0188EC90E0A0E0B0E080930F
:100EC0003E0190933F01A0934001B0934101809176
:100ED0003E0190913F01A0914001B091410180936A
:100EE000420190934301A0934401B09345018DEFDB
:100EF00093E090934701809346011092480184E665
:100F000090E0A0E0B0E08093490190934A01A09363
:100F10004B01B0934C018091490190914A01A091FD
:100F20004B01B0914C0180934D0190934E01A093E1
:100F30004F01B093500185EC94E09093520180935F
:100F4000510164E670E080E090E00E94B0010E94F0
:100F5000DE010E94B5030E94BC0080935E01809177
:100F60005E0180935F011A8219829CC089819A81F7
:100F7000880F991F9E012F5F3F4F820F931F069688
:100F8000FC0180819181FC0125813681478150855A
:100F900089819A81880F991FBE016F5F7F4F860FED
:100FA000971F0696FC0180819181FC0181819281CD
:100FB000A381B481281739074A075B0709F045C0A8
:100FC00089819A81880F991F9E012F5F3F4F820F61
:100FD000931F0696FC010081118189819A81880FF7
:100FE000991F9E012F5F3F4F820F931F0696FC01B2
:100FF00080819181FC012185328589819A81880FC8
:10100000991FAE014F5F5F4F840F951F0696FC013D
:1010100080819181FC018081082E000C990BF901DF
:101020000995F801808389819A81880F991F9E0113
:101030002F5F3F4F820F931F0696FC0180819181A5
:10104000FC01158216821782108689819A81880F89
:10105000991F9E012F5F3F4F820F931F0696FC0141
:101060002081318189819A81880F991FAE014F5F5C
:101070005F4F840F951F0696FC0180819181FC01D2
:1010800085819681A781B0858C599F4FAF4FBF4F07
:10109000F90185839683A783B08789819A81019618
:1010A0009A83898329813A818C819D812817390708
:1010B00008F45CCF0000809124018823E1F31092B2
:1010C000240149CFA1E21A2EAA1BBB1BFD010DC0B2
:1010D000AA1FBB1FEE1FFF1FA217B307E407F507E8
:1010E00020F0A21BB30BE40BF50B661F771F881FC4
:1010F000991F1A9469F760957095809590959B015A
:10110000AC01BD01CF010895EE0FFF1F0024001CAC
:101110000BBE0790F691E02D09940E943A0908F45D
:1011200081E008950E94A6080C9475090E946E093A
:1011300058F00E94670940F029F45F3F29F00C94B1
:101140005E0951110C94A9090C9464090E94860946
:1011500068F39923B1F3552391F3951B550BBB27E6
:10116000AA2762177307840738F09F5F5F4F220F2B
:10117000331F441FAA1FA9F335D00E2E3AF0E0E822
:1011800032D091505040E695001CCAF72BD0FE2F6C
:1011900029D0660F771F881FBB1F26173707480700
:1011A000AB07B0E809F0BB0B802DBF01FF279358B8
:1011B0005F4F3AF09E3F510578F00C945E090C9415
:1011C000A9095F3FE4F3983ED4F386957795679538
:1011D000B795F7959F5FC9F7880F911D96958795ED
:1011E00097F90895E1E0660F771F881FBB1F62170C
:1011F00073078407BA0720F0621B730B840BBA0BCA
:10120000EE1F88F7E09508950E940B096894B111CC
:101210000C94A90908950E948E0988F09F5798F0B0
:10122000B92F9927B751B0F0E1F0660F771F881FEB
:10123000991F1AF0BA95C9F714C0B13091F00E9405
:10124000A809B1E008950C94A809672F782F882782
:10125000B85F39F0B93FCCF3869577956795B3952C
:10126000D9F73EF490958095709561957F4F8F4F9B
:101270009F4F0895990F0008550FAA0BE0E8FEEF65
:1012800016161706E807F907C0F012161306E4074A
:10129000F50798F0621B730B840B950B39F40A2643
:1012A00061F0232B242B252B21F408950A2609F421
:1012B000A140A6958FEF811D811D089597F99F6725
:1012C00080E870E060E008959FEF80EC08950024CE
:1012D0000A941616170618060906089500240A949B
:1012E00012161306140605060895092E0394000C21
:1012F00011F4882352F0BB0F40F4BF2B11F460FFB0
:1013000004C06F5F7F4F8F4F9F4F089557FD9058D8
:10131000440F551F59F05F3F71F04795880F97FBB9
:10132000991F61F09F3F79F0879508951216130673
:101330001406551FF2CF4695F1DF08C016161706A2
:101340001806991FF1CF86957105610508940895D7
:10135000E894BB2766277727CB0197F908950E9469
:101360003A0908F48FEF08950E94C7090C94750993
:101370000E94670938F00E946E0920F0952311F051
:101380000C945E090C94640911240C94A9090E9420
:10139000860970F3959FC1F3950F50E0551F629F2A
:1013A000F001729FBB27F00DB11D639FAA27F00DBE
:1013B000B11DAA1F649F6627B00DA11D661F829FE5
:1013C0002227B00DA11D621F739FB00DA11D621FCA
:1013D000839FA00D611D221F749F3327A00D611DE7
:1013E000231F849F600D211D822F762F6A2F1124C9
:1013F0009F5750409AF0F1F088234AF0EE0FFF1FFC
:10140000BB1F661F771F881F91505040A9F79E3F52
:10141000510580F00C945E090C94A9095F3FE4F338
:10142000983ED4F3869577956795B795F795E795A8
:101430009F5FC1F7FE2B880F911D9695879597F9B1
:061440000895F894FFCFAF
:10144600010000000000000200000000DB020000B6
:101456000000719DAE43A4D0A443A4D082433201C0
:041466003D014801FB
:00000001FF
