:100000000C9454000C9473000C9473000C947300C3
:100010000C9473000C9473000C9473000C94730094
:100020000C9473000C9473000C9473000C94730084
:100030000C9473000C942C020C9473000C947300B9
:100040000C9473000C9473000C9473000C94730064
:100050000C9473000C9473000C9473000C94730054
:100060000C9473000C9473000C9473000C94730044
:100070000C9473000C9473000C9473000C94730034
:100080000C9473000C9473000C94730020032503EC
:100090003B0349035B0369037B0389039B03A903B8
:1000A000BF03CD03DF03ED0311241FBECFEFD0E468
:1000B000DEBFCDBF11E0A0E0B1E0ECE8FCE000E085
:1000C0000BBF02C007900D92A231B107D9F721E012
:1000D000A2E1B1E001C01D92A834B207E1F70E948D
:1000E0000B050C9444060C940000CF93DF9300D0D2
:1000F0001F92CDB7DEB789836A834B838B818823B8
:1001000071F08A81282F30E081E090E002C0880FF2
:10011000991F2A95E2F7982F8981892B0EC08A8131
:10012000282F30E081E090E002C0880F991F2A95C7
:10013000E2F7982F9095898189230F900F900F9067
:10014000DF91CF910895CF93DF9300D0CDB7DEB785
:1001500089836A838A81282F30E081E090E002C0A1
:10016000880F991F2A95E2F7982F898189230F908C
:100170000F90DF91CF9108950F931F93CF93DF934B
:10018000CDB7DEB708E210E040E064E08FEF0E94F8
:100190007500F8018083000086E290E0FC01808118
:1001A000809560E00E94A300882311F081E3D3C012
:1001B00086E290E0FC018081809561E00E94A300CE
:1001C000882311F084E3C7C086E290E0FC018081BF
:1001D000809562E00E94A300882311F087E3BBC0F2
:1001E00086E290E0FC018081809563E00E94A3009C
:1001F000882311F08AE2AFC008E210E040E065E039
:100200008FEF0E947500F8018083000086E290E085
:10021000FC018081809560E00E94A300882311F09A
:1002200082E399C086E290E0FC018081809561E0E4
:100230000E94A300882311F085E38DC086E290E040
:10024000FC018081809562E00E94A300882311F068
:1002500088E381C086E290E0FC018081809563E0C4
:100260000E94A300882311F080E375C008E210E02B
:1002700040E066E08FEF0E947500F8018083000087
:1002800086E290E0FC018081809560E00E94A300FE
:10029000882311F083E35FC086E290E0FC01808157
:1002A000809561E00E94A300882311F086E353C08B
:1002B00086E290E0FC018081809562E00E94A300CC
:1002C000882311F089E347C086E290E0FC01808139
:1002D000809563E00E94A300882311F083E23BC075
:1002E00008E210E040E067E08FEF0E947500F8013F
:1002F0008083000086E290E0FC018081809560E0D0
:100300000E94A300882311F081E425C086E290E0DA
:10031000FC018081809561E00E94A300882311F098
:1003200082E419C086E290E0FC018081809562E061
:100330000E94A300882311F083E40DC086E290E0C0
:10034000FC018081809563E00E94A300882311F066
:1003500084E401C080E0DF91CF911F910F91089557
:10036000CF93DF9300D000D0CDB7DEB769837A8317
:100370008B839C8389819A81AB81BC8180930001AE
:1003800090930101A0930201B093030180910001B9
:1003900090910101A0910201B0910301809313019A
:1003A00090931401A0931501B093160100000F90D3
:1003B0000F900F900F90DF91CF910895CF93DF931F
:1003C000CDB7DEB781E890E02BE0FC01208388E820
:1003D00090E02DE730E0FC01318320838FE690E050
:1003E00022E0FC01208384E890E0FC01118210826D
:1003F0008091000190910101A0910201B09103014F
:100400008093130190931401A0931501B0931601EA
:100410008FE590E02FE530E0F90120812068FC01B4
:1004200020830000DF91CF910895CF93DF93CDB764
:10043000DEB781E890E0FC0110820000DF91CF91EF
:100440000895CF93DF93CDB7DEB781E0809312019B
:100450000000DF91CF9108951F920F9200905F00EE
:100460000F92112400905B000F922F933F934F93B4
:100470005F936F937F938F939F93AF93BF93EF930C
:10048000FF93CF93DF93CDB7DEB7809113019091A7
:100490001401A0911501B09116010197A109B109AC
:1004A0008093130190931401A0931501B09316014A
:1004B0008091130190911401A0911501B091160142
:1004C000892B8A2B8B2B91F40E94210280910001B1
:1004D00090910101A0910201B09103018093130159
:1004E00090931401A0931501B09316010000DF91C1
:1004F000CF91FF91EF91BF91AF919F918F917F919C
:100500006F915F914F913F912F910F9000925B00FF
:100510000F9000925F000F901F901895CF93DF937C
:10052000CDB7DEB72C970FB6F894DEBF0FBECDBFA8
:100530006D837E838F83988729873A874B875C8773
:100540008D819E81AF81B88529853A854B855C85F3
:10055000BC01CD010E941906DC01CB0189839A837D
:10056000AB83BC8389819A81AB81BC81892B8A2B27
:100570008B2B29F489859A85AB85BC8511C089852B
:100580009A85AB85BC858D839E83AF83B88789812F
:100590009A81AB81BC8189879A87AB87BC87D0CF92
:1005A000BC01CD012C960FB6F894DEBF0FBECDBFB7
:1005B000DF91CF910895CF93DF9300D01F92CDB7F5
:1005C000DEB789837B836A8389818A3031F48A81AB
:1005D0009B81BC018DE00E94DB0280EC90E0FC017D
:1005E0008081882F90E080729927892BB1F386EC67
:1005F00090E02981FC01208380E090E00F900F9033
:100600000F90DF91CF910895CF93DF9300D0CDB7B6
:10061000DEB79A83898389819A81092E000CAA0BFF
:10062000BB0B40E050E02DE030E0841B950B281719
:10063000390708F4EEC08A5B9F4FFC010C943B061F
:1006400081E090E09A838983E4C085E290E0FC0138
:10065000108280914701833229F081E090E09A83F3
:100660008983D7C080914701833229F482E090E0EA
:100670009A838983CEC080914701833229F482E036
:1006800090E09A838983C5C083E090E09A83898350
:10069000C0C080914701813329F083E090E09A83C4
:1006A0008983B7C080914701813329F484E090E0C9
:1006B0009A838983AEC080914701813329F484E015
:1006C00090E09A838983A5C085E090E09A8389832E
:1006D000A0C080914701823329F085E090E09A83A1
:1006E000898397C080914701823329F486E090E0A6
:1006F0009A8389838EC080914701823329F486E0F2
:1007000090E09A83898385C087E090E09A8389830B
:1007100080C080914701833329F087E090E09A837D
:10072000898377C080914701833329F488E090E082
:100730009A8389836EC080914701833329F488E0CE
:1007400090E09A83898365C089E090E09A838983E9
:1007500060C080914701843329F089E090E09A835A
:10076000898357C080914701843349F485E290E042
:10077000FC0180818AE090E09A8389834AC080915D
:100780004701843329F48AE090E09A83898341C049
:100790008BE090E09A8389833CC080914701853348
:1007A00029F08BE090E09A83898333C080914701E0
:1007B000853329F48CE090E09A8389832AC0809164
:1007C0004701853329F48CE090E09A83898321C026
:1007D0008DE090E09A8389831CC085E290E021E05F
:1007E000FC01208383E290E0FC018081882F90E06F
:1007F0008F379F4F49F485E290E0FC01108281E041
:1008000090E09A83898305C08DE090E09A83898384
:10081000000000000F900F90DF91CF910895CF93CB
:10082000DF9300D01F92CDB7DEB79B838A838A8186
:100830009B81892B19F41B821A8203C01B821A82A6
:1008400000008A819B81892B61F480911801882F97
:1008500090E0880F991F982F80911701892B898329
:10086000000085E290E02981FC0120838A819B8140
:100870000F900F900F90DF91CF910895CF93DF935A
:1008800000D0CDB7DEB79A83898389819A8100979A
:1008900019F0019761F016C09091190181E0992338
:1008A00009F080E0882F90E09A8389830EC09091B0
:1008B000190181E0992309F080E0882F90E09A8364
:1008C000898303C01A821982000089819A81009766
:1008D00059F0019751F49091170181E0992309F0A3
:1008E00080E08093170101C0000089819A810F90F8
:1008F0000F90DF91CF910895CF93DF9300D0CDB7C4
:10090000DEB79A83898389819A81009719F00197CC
:1009100061F016C09091190181E0992309F080E0FF
:10092000882F90E09A8389830EC09091190181E00D
:10093000992309F080E0882F90E09A83898303C08F
:100940001A821982000089819A81009759F00197D3
:1009500051F49091180181E0992309F080E080938F
:10096000180101C0000089819A810F900F90DF91DA
:10097000CF910895CF93DF9300D01F92CDB7DEB70C
:100980009B838A8380E290E0FC018081882F90E045
:100990008170992721E0892B09F020E029838A8141
:1009A0009B818130910579F08230910589F0892B06
:1009B000C9F481E09981913009F080E0882F90E0BE
:1009C0009B838A8312C082E090E09B838A830DC060
:1009D00081E09981992309F480E0882F90E09B833E
:1009E0008A8303C01B821A8200008A819B8101973F
:1009F00049F49091190181E0992309F080E08093F6
:100A0000190101C000008A819B810F900F900F9007
:100A1000DF91CF9108950F931F93CF93DF93CDB7BD
:100A2000DEB728970FB6F894DEBF0FBECDBF1B828E
:100A300084E290E02BE7FC01208385E290E020E84F
:100A4000FC01208387E290E020EFFC01208388E214
:100A500090E02FE0FC0120838AE191E098878F836A
:100A600081E090E09D838C838FEF8E8310921A013A
:100A700084E690E0A0E0B0E080931B0190931C011D
:100A8000A0931D01B0931E0180911B0190911C0148
:100A9000A0911D01B0911E0180931F019093200130
:100AA000A0932101B093220184E093E0909324016C
:100AB0008093230164E670E080E090E00E94B00142
:100AC0000E94DE010E94BC00809346018091460195
:100AD000809347011A8219829CC089819A81880F6C
:100AE000991F9E012F5F3F4F820F931F0696FC01B7
:100AF00080819181FC0125813681478150858981E2
:100B00009A81880F991FBE016F5F7F4F860F971FD5
:100B10000696FC0180819181FC0181819281A381F3
:100B2000B481281739074A075B0709F045C0898156
:100B30009A81880F991F9E012F5F3F4F820F931F4D
:100B40000696FC010081118189819A81880F991F85
:100B50009E012F5F3F4F820F931F0696FC018081FD
:100B60009181FC012185328589819A81880F991FA5
:100B7000AE014F5F5F4F840F951F0696FC01808189
:100B80009181FC018081082E000C990BF9010995D7
:100B9000F801808389819A81880F991F9E012F5FB8
:100BA0003F4F820F931F0696FC0180819181FC01CB
:100BB000158216821782108689819A81880F991F63
:100BC0009E012F5F3F4F820F931F0696FC012081ED
:100BD000318189819A81880F991FAE014F5F5F4FE4
:100BE000840F951F0696FC0180819181FC0185810F
:100BF0009681A781B0858C599F4FAF4FBF4FF901A8
:100C000085839683A783B08789819A8101969A8389
:100C1000898329813A818C819D812817390708F4BD
:100C20005CCF0000809112018823E1F31092120141
:100C300049CFA1E21A2EAA1BBB1BFD010DC0AA1FA2
:100C4000BB1FEE1FFF1FA217B307E407F50720F035
:100C5000A21BB30BE40BF50B661F771F881F991FB0
:100C60001A9469F760957095809590959B01AC01F9
:100C7000BD01CF010895EE0FFF1F0024001C0BBE25
:0C0C80000790F691E02D0994F894FFCF46
:100C8C00010000000000000200000000DB02000078
:020C9C00000056
:00000001FF
