:100000000C948B000C94AA000C94AA000C94AA00E7
:100010000C94AA000C94AA000C94AA000C94AA00B8
:100020000C94AA000C94AA000C94AA000C94AA00A8
:100030000C94AA000C94AA000C94AA000C94AA0098
:100040000C94AA000C94AA000C94AA000C94AA0088
:100050000C94AA000C94AA000C94AA000C94AA0078
:100060000C94AA000C94AA000C94AA000C94AA0068
:100070000C94AA000C94AA000C94AA000C94AA0058
:100080000C94AA000C94AA000C94AA007D03E2032D
:10009000E203E203E203E203E203E203E203E20338
:1000A000E203E203E203E203E203E203E203E20328
:1000B000E203E203E203E203E203E203E203E20318
:1000C000E203E203E203E203E203E203E203E20308
:1000D000E203DC03E203E203E203E203E203E203FE
:1000E000D103E203E203E203E203E203D703830363
:1000F00089038F0395039B03A103A703AD03B303F8
:10010000E203E203E203E203E203E203E203B903F0
:10011000BF03C503CB0311241FBECFEFD0E4DEBF66
:10012000CDBF11E0A0E0B1E0E0EFF7E000E00BBFF1
:1001300002C007900D92AE30B107D9F721E0AEE0D2
:10014000B1E001C01D92A431B207E1F70E9449035A
:100150000C94F6030C940000CF93DF9300D01F9211
:10016000CDB7DEB789836A834B838B81882371F097
:100170008A81282F30E081E090E002C0880F991F2B
:100180002A95E2F7982F8981892B0EC08A81282F22
:1001900030E081E090E002C0880F991F2A95E2F7D5
:1001A000982F9095898189230F900F900F90DF9160
:1001B000CF910895CF93DF9300D0CDB7DEB7898379
:1001C0006A838A81282F30E081E090E002C0880FA6
:1001D000991F2A95E2F7982F898189230F900F9014
:1001E000DF91CF9108950F931F93CF93DF93CDB7F6
:1001F000DEB708E210E040E064E08FEF0E94AC0060
:10020000F8018083000086E290E0FC018081809507
:1002100060E00E94DA00882311F081E3D3C086E217
:1002200090E0FC018081809561E00E94DA008823E3
:1002300011F084E3C7C086E290E0FC0180818095E4
:1002400062E00E94DA00882311F087E3BBC086E2F7
:1002500090E0FC018081809563E00E94DA008823B1
:1002600011F08AE2AFC008E210E040E065E08FEFF5
:100270000E94AC00F8018083000086E290E0FC015F
:100280008081809560E00E94DA00882311F082E38B
:1002900099C086E290E0FC018081809561E00E9437
:1002A000DA00882311F085E38DC086E290E0FC013E
:1002B0008081809562E00E94DA00882311F088E353
:1002C00081C086E290E0FC018081809563E00E941D
:1002D000DA00882311F080E375C008E210E040E006
:1002E00066E08FEF0E94AC00F8018083000086E298
:1002F00090E0FC018081809560E00E94DA00882314
:1003000011F083E35FC086E290E0FC01808180957C
:1003100061E00E94DA00882311F086E353C086E290
:1003200090E0FC018081809562E00E94DA008823E1
:1003300011F089E347C086E290E0FC01808180955E
:1003400063E00E94DA00882311F083E23BC008E2F8
:1003500010E040E067E08FEF0E94AC00F80180837E
:10036000000086E290E0FC018081809560E00E94C0
:10037000DA00882311F081E425C086E290E0FC01D8
:100380008081809561E00E94DA00882311F082E488
:1003900019C086E290E0FC018081809562E00E94B5
:1003A000DA00882311F083E40DC086E290E0FC01BE
:1003B0008081809563E00E94DA00882311F084E454
:1003C00001C080E0DF91CF911F910F910895CF93ED
:1003D000DF9300D01F92CDB7DEB789837B836A831A
:1003E00089818A3031F48A819B81BC018DE00E9431
:1003F000E70180EC90E0FC018081882F90E0807222
:100400009927892BB1F386EC90E02981FC012083A8
:1004100080E090E00F900F900F90DF91CF910895C2
:10042000CF93DF931F92CDB7DEB7898380911201FE
:10043000909113018130910569F08130910518F098
:100440000297C9F025C081E090E09093130180935A
:1004500012011EC08981882339F081E090E09093D9
:1004600013018093120114C082E090E09093130175
:10047000809312010DC08981882351F085E290E0BC
:1004800025E230E0F90120812058FC01208300C0E2
:1004900000000F90DF91CF910895CF93DF9300D0AC
:1004A0001F92CDB7DEB79B838A838A819B81892B7C
:1004B00019F41B821A8203C01B821A8200008A81EF
:1004C0009B81892B61F480910F01882F90E0880F28
:1004D000991F982F80910E01892B8983000085E256
:1004E00090E02981FC0120838A819B810F900F90ED
:1004F0000F90DF91CF910895CF93DF9300D0CDB7C8
:10050000DEB79A83898389819A81009719F00197D0
:1005100061F016C09091100181E0992309F080E00C
:10052000882F90E09A8389830EC09091100181E01A
:10053000992309F080E0882F90E09A83898303C093
:100540001A821982000089819A81009759F00197D7
:1005500051F490910E0181E0992309F080E080939D
:100560000E0101C0000089819A810F900F90DF91E8
:10057000CF910895CF93DF9300D0CDB7DEB79A83A4
:10058000898389819A81009719F0019761F016C0DB
:100590009091100181E0992309F080E0882F90E08C
:1005A0009A8389830EC09091100181E0992309F00C
:1005B00080E0882F90E09A83898303C01A82198291
:1005C000000089819A81009759F0019751F4909128
:1005D0000F0181E0992309F080E080930F0101C0B1
:1005E000000089819A810F900F90DF91CF9108953B
:1005F000CF93DF9300D01F92CDB7DEB79B838A8362
:1006000080E290E0FC018081882F90E08170992742
:1006100021E0892B09F020E029838A819B818130A8
:10062000910579F08230910589F0892BC9F481E038
:100630009981913009F080E0882F90E09B838A8334
:1006400012C082E090E09B838A830DC081E0998193
:10065000992309F480E0882F90E09B838A8303C06C
:100660001B821A8200008A819B81019749F4909134
:10067000100181E0992309F080E08093100101C00E
:1006800000008A819B810F900F900F90DF91CF9196
:100690000895CF93DF931F92CDB7DEB7198284E21E
:1006A00090E02FEFFC01208385E290E0FC011082B6
:1006B00087E290E020EFFC01208388E290E02FE0C9
:1006C000FC0120830E94F3008093110180911101AD
:1006D000882F90E0092E000CAA0BBB0B40E050E0E5
:1006E00024E430E0841B950B2817390708F46AC00E
:1006F0008A5B9F4FFC010C94ED0385E290E02FE1B3
:10070000FC01208365C085E290E021E0FC012083AC
:100710005FC085E290E022E0FC01208359C085E2C1
:1007200090E023E0FC01208353C085E290E024E0C8
:10073000FC0120834DC085E290E025E0FC01208390
:1007400047C085E290E026E0FC01208341C085E2BD
:1007500090E027E0FC0120833BC085E290E028E0A8
:10076000FC01208335C085E290E029E0FC01208374
:100770002FC085E290E02AE0FC01208329C085E2B9
:1007800090E02BE0FC01208323C085E290E02CE088
:10079000FC0120831DC085E290E02DE0FC01208358
:1007A00017C085E290E02EE0FC01208311C085E2B5
:1007B00090E0FC0110820CC085E290E02FE0FC018B
:1007C000208306C085E290E02BE1FC01208300003D
:1007D000809111010E94100275CFEE0FFF1F0024BF
:1007E000001C0BBE0790F691E02D0994F894FFCF02
:0E07F0000000000200000000E7010000000011
:00000001FF
