:100000000C9454000C9473000C9473000C947300C3
:100010000C9473000C9473000C9473000C94730094
:100020000C9473000C9473000C9473000C94730084
:100030000C9473000C942C020C9473000C947300B9
:100040000C9473000C9473000C9473000C94730064
:100050000C9473000C9473000C9473000C94730054
:100060000C9473000C9473000C9473000C94730044
:100070000C9473000C9473000C9473000C94730034
:100080000C9473000C9473000C947300C004C504AA
:10009000E404F2040D051B05360544055F056D05F6
:1000A00088059605B105BF0511241FBECFEFD0E42A
:1000B000DEBFCDBF11E0A0E0B1E0EAEBF3E100E08C
:1000C0000BBF02C007900D92AE31B107D9F721E006
:1000D000AEE1B1E001C01D92AA35B207E1F70E947E
:1000E000DB060C94DB090C940000CF93DF9300D067
:1000F0001F92CDB7DEB789836A834B838B818823B8
:1001000071F08A81282F30E081E090E002C0880FF2
:10011000991F2A95E2F7982F8981892B0EC08A8131
:10012000282F30E081E090E002C0880F991F2A95C7
:10013000E2F7982F9095898189230F900F900F9067
:10014000DF91CF910895CF93DF9300D0CDB7DEB785
:1001500089836A838A81282F30E081E090E002C0A1
:10016000880F991F2A95E2F7982F898189230F908C
:100170000F90DF91CF9108950F931F93CF93DF934B
:10018000CDB7DEB708E210E040E064E08FEF0E94F8
:100190007500F8018083000086E290E0FC01808118
:1001A000809560E00E94A300882311F081E3D3C012
:1001B00086E290E0FC018081809561E00E94A300CE
:1001C000882311F084E3C7C086E290E0FC018081BF
:1001D000809562E00E94A300882311F087E3BBC0F2
:1001E00086E290E0FC018081809563E00E94A3009C
:1001F000882311F08AE2AFC008E210E040E065E039
:100200008FEF0E947500F8018083000086E290E085
:10021000FC018081809560E00E94A300882311F09A
:1002200082E399C086E290E0FC018081809561E0E4
:100230000E94A300882311F085E38DC086E290E040
:10024000FC018081809562E00E94A300882311F068
:1002500088E381C086E290E0FC018081809563E0C4
:100260000E94A300882311F080E375C008E210E02B
:1002700040E066E08FEF0E947500F8018083000087
:1002800086E290E0FC018081809560E00E94A300FE
:10029000882311F083E35FC086E290E0FC01808157
:1002A000809561E00E94A300882311F086E353C08B
:1002B00086E290E0FC018081809562E00E94A300CC
:1002C000882311F089E347C086E290E0FC01808139
:1002D000809563E00E94A300882311F083E23BC075
:1002E00008E210E040E067E08FEF0E947500F8013F
:1002F0008083000086E290E0FC018081809560E0D0
:100300000E94A300882311F081E425C086E290E0DA
:10031000FC018081809561E00E94A300882311F098
:1003200082E419C086E290E0FC018081809562E061
:100330000E94A300882311F083E40DC086E290E0C0
:10034000FC018081809563E00E94A300882311F066
:1003500084E401C080E0DF91CF911F910F91089557
:10036000CF93DF9300D000D0CDB7DEB769837A8317
:100370008B839C8389819A81AB81BC8180930001AE
:1003800090930101A0930201B093030180910001B9
:1003900090910101A0910201B091030180931F018E
:1003A00090932001A0932101B093220100000F90AF
:1003B0000F900F900F90DF91CF910895CF93DF931F
:1003C000CDB7DEB781E890E02BE0FC01208388E820
:1003D00090E02DE730E0FC01318320838FE690E050
:1003E00022E0FC01208384E890E0FC01118210826D
:1003F0008091000190910101A0910201B09103014F
:1004000080931F0190932001A0932101B0932201BA
:100410008FE590E02FE530E0F90120812068FC01B4
:1004200020830000DF91CF910895CF93DF93CDB764
:10043000DEB781E890E0FC0110820000DF91CF91EF
:100440000895CF93DF93CDB7DEB781E080931E018F
:100450000000DF91CF9108951F920F9200905F00EE
:100460000F92112400905B000F922F933F934F93B4
:100470005F936F937F938F939F93AF93BF93EF930C
:10048000FF93CF93DF93CDB7DEB780911F0190919B
:100490002001A0912101B09122010197A109B10988
:1004A00080931F0190932001A0932101B09322011A
:1004B00080911F0190912001A0912101B091220112
:1004C000892B8A2B8B2B91F40E94210280910001B1
:1004D00090910101A0910201B091030180931F014D
:1004E00090932001A0932101B09322010000DF919D
:1004F000CF91FF91EF91BF91AF919F918F917F919C
:100500006F915F914F913F912F910F9000925B00FF
:100510000F9000925F000F901F901895CF93DF937C
:10052000CDB7DEB72C970FB6F894DEBF0FBECDBFA8
:100530006D837E838F83988729873A874B875C8773
:100540008D819E81AF81B88529853A854B855C85F3
:10055000BC01CD010E941C08DC01CB0189839A8378
:10056000AB83BC8389819A81AB81BC81892B8A2B27
:100570008B2B29F489859A85AB85BC8511C089852B
:100580009A85AB85BC858D839E83AF83B88789812F
:100590009A81AB81BC8189879A87AB87BC87D0CF92
:1005A000BC01CD012C960FB6F894DEBF0FBECDBFB7
:1005B000DF91CF910895CF93DF9300D01F92CDB7F5
:1005C000DEB789837B836A8389818A3031F48A81AB
:1005D0009B81BC018DE00E94DB0280EC90E0FC017D
:1005E0008081882F90E080729927892BB1F386EC67
:1005F00090E02981FC01208380E090E00F900F9033
:100600000F90DF91CF910895CF93DF93CDB7DEB7F1
:100610008AE790E02AE730E0F9012081206EFC01B2
:1006200020830000DF91CF9108950F931F93CF9304
:10063000DF9300D000D0CDB7DEB769837A838B8398
:100640009C838091280190912901A0912A01B09169
:100650002B019C01AD0169817A818B819C810E9473
:100660004708882309F477C020E030E0A9016981B8
:100670007A818B819C810E944708882351F481E90B
:1006800090E021E930E0F90120812870FC0120830D
:1006900009C081E990E021E930E0F901208123607F
:1006A000FC01208328E539E344E75FE369817A812F
:1006B0008B819C810E944708882344F488E990E05C
:1006C0002FEF3FEFFC013183208334C020E034E280
:1006D00044EF56E469817A818B819C810E9469098B
:1006E000181634F488E990E0FC011182108222C0CF
:1006F00008E910E020E030E040E053E469817A81CD
:100700008B819C810E946E09DC01CB019C01AD01B3
:1007100060E074E284EF9AE40E944C08DC01CB01B3
:10072000BC01CD010E94BE08DC01CB010197F8019C
:100730009183808384E990E0FC0111821082898199
:100740009A81AB81BC818093280190932901A09369
:100750002A01B0932B0100000F900F900F900F9083
:10076000DF91CF911F910F910895CF93DF93CDB774
:10077000DEB780E990E020E4FC01208381E990E08D
:100780002BE0FC01208360E070E0CB010E941503A8
:100790000000DF91CF910895CF93DF93CDB7DEB7FF
:1007A00080E990E0FC01108281E990E0FC01108278
:1007B0000000DF91CF910895CF93DF9300D0CDB7A4
:1007C000DEB79A83898389819A818230910549F1C4
:1007D000833091052CF4009779F0019791F0ADC02A
:1007E0008430910509F46FC0843091050CF442C047
:1007F000059709F493C0A1C081E090E09A838983B2
:100800009CC080E290E0FC01808188232CF082E093
:1008100090E09A83898391C081E090E09A838983F4
:100820008CC0809126018530C8F480912701882FE3
:1008300090E0880F991F880F991F8E5E9E4FFC01D4
:1008400080819181A281B381BC01CD010E941503F9
:10085000809126018F5F809326016FC01092260140
:10086000809127018F5F8093270183E090E09A8336
:10087000898363C0809126018530C8F48091270167
:10088000882F90E0880F991F880F991F8E5E9E4FCA
:10089000FC0180819181A281B381BC01CD010E94C4
:1008A0001503809126018F5F8093260146C0109228
:1008B0002601809127018F5F8093270184E090E0DB
:1008C0009A8389833AC0809126018530C8F480914B
:1008D0002701882F90E0880F991F880F991F8E5E3F
:1008E0009E4FFC0180819181A281B381BC01CD0129
:1008F0000E941503809126018F5F809326011DC001
:10090000109226011092270160E070E0CB010E9456
:10091000150385E090E09A8389830FC083E290E01D
:10092000FC01808188232CF085E090E09A83898304
:1009300004C081E090E09A83898389819A810F9035
:100940000F90DF91CF910895CF93DF9300D0CDB773
:10095000DEB79A83898389819A81092E000CAA0BBC
:10096000BB0B40E050E02DE030E0841B950B2817D6
:10097000390708F41DC18A5B9F4FFC010C943E08A7
:1009800081E090E09A83898313C185E290E0FC01C5
:10099000108280915901882329F481E090E09A83A4
:1009A000898306C180915901833229F081E090E06A
:1009B0009A838983FDC080915901833229F482E0B2
:1009C00090E09A838983F4C080915901833229F49D
:1009D00082E090E09A838983EBC083E090E09A8381
:1009E0008983E6C080915901882329F483E090E04F
:1009F0009A838983DDC080915901813329F081E098
:100A000090E09A838983D4C080915901813329F47D
:100A100084E090E09A838983CBC08091590181332F
:100A200029F484E090E09A838983C2C085E090E055
:100A30009A838983BDC080915901882329F485E078
:100A400090E09A838983B4C080915901823329F060
:100A500081E090E09A838983ABC080915901823311
:100A600029F486E090E09A838983A2C0809159019D
:100A7000823329F486E090E09A83898399C087E0E5
:100A800090E09A83898394C080915901882329F446
:100A900087E090E09A8389838BC0809159018333EA
:100AA00029F081E090E09A83898382C08091590186
:100AB000833329F488E090E09A83898379C0809118
:100AC0005901833329F488E090E09A83898370C0C8
:100AD00089E090E09A8389836BC0809159018823D3
:100AE00029F489E090E09A83898362C0809159015A
:100AF000843329F081E090E09A83898359C0809102
:100B00005901843329F48AE090E09A83898350C0A4
:100B100080915901843329F48AE090E09A83898393
:100B200047C08BE090E09A83898342C0809159014D
:100B3000882329F48BE090E09A83898339C08091DF
:100B40005901853329F081E090E09A83898330C090
:100B500080915901853329F48CE090E09A83898350
:100B600027C080915901853329F48CE090E09A8365
:100B700089831EC08DE090E09A83898319C085E245
:100B800090E021E0FC01208383E290E0FC01808181
:100B900088234CF085E290E0FC01108281E090E037
:100BA0009A83898305C08DE090E09A838983000051
:100BB00089819A810F900F90DF91CF910895CF9303
:100BC000DF9300D01F92CDB7DEB79B838A838A81E3
:100BD0009B81892B19F41B821A8203C01B821A8203
:100BE00000008A819B81892B61F480912401882FE8
:100BF00090E0880F991F982F80912301892B89837A
:100C0000000085E290E02981FC0120838A819B819C
:100C10000F900F900F90DF91CF910895CF93DF93B6
:100C200000D0CDB7DEB79A83898389819A810097F6
:100C300019F0019761F016C09091250181E0992388
:100C400009F080E0882F90E09A8389830EC090910C
:100C5000250181E0992309F080E0882F90E09A83B4
:100C6000898303C01A821982000089819A810097C2
:100C700059F0019751F49091230181E0992309F0F3
:100C800080E08093230101C0000089819A810F9048
:100C90000F90DF91CF910895CF93DF9300D0CDB720
:100CA000DEB79A83898389819A81009719F0019729
:100CB00061F016C09091250181E0992309F080E050
:100CC000882F90E09A8389830EC09091250181E05E
:100CD000992309F080E0882F90E09A83898303C0EC
:100CE0001A821982000089819A81009759F0019730
:100CF00051F49091240181E0992309F080E08093E0
:100D0000240101C0000089819A810F900F90DF912A
:100D1000CF910895CF93DF9300D01F92CDB7DEB768
:100D20009B838A8380E290E0FC018081882F90E0A1
:100D30008170992721E0892B09F020E029838A819D
:100D40009B818130910579F08230910589F0892B62
:100D5000C9F481E09981913009F080E0882F90E01A
:100D60009B838A8312C082E090E09B838A830DC0BC
:100D700081E09981992309F480E0882F90E09B839A
:100D80008A8303C01B821A8200008A819B8101979B
:100D900049F49091250181E0992309F080E0809346
:100DA000250101C000008A819B810F900F900F9058
:100DB000DF91CF9108950F931F93CF93DF93CDB71A
:100DC000DEB72A970FB6F894DEBF0FBECDBF1B82E9
:100DD00081E290E0FC01108282E290E02FEFFC01C2
:100DE000208384E290E02BE7FC01208385E290E001
:100DF00020E8FC01208387E290E020EFFC012083C3
:100E000088E290E02FE0FC0120838CE291E098875B
:100E10008F8387E391E09A87898782E090E09D83C2
:100E20008C838FEF8E8310922C0188EC90E0A0E0F1
:100E3000B0E080932D0190932E01A0932F01B093E9
:100E4000300180912D0190912E01A0912F01B09140
:100E500030018093310190933201A0933301B0931C
:100E600034018CED93E0909336018093350110921C
:100E7000370184E690E0A0E0B0E0809338019093E1
:100E80003901A0933A01B0933B01809138019091D0
:100E90003901A0913A01B0913B0180933C019093BC
:100EA0003D01A0933E01B0933F0184EA94E090930A
:100EB00041018093400164E670E080E090E00E9490
:100EC000B0010E94DE010E94B5030E94BC00809325
:100ED000580180915801809359011A8219829CC04F
:100EE00089819A81880F991F9E012F5F3F4F820F42
:100EF000931F0696FC0180819181FC01258136813A
:100F00004781508589819A81880F991FBE016F5F43
:100F10007F4F860F971F0696FC0180819181FC010F
:100F200081819281A381B481281739074A075B0721
:100F300009F045C089819A81880F991F9E012F5F12
:100F40003F4F820F931F0696FC010081118189811A
:100F50009A81880F991F9E012F5F3F4F820F931F29
:100F60000696FC0180819181FC0121853285898171
:100F70009A81880F991FAE014F5F5F4F840F951FB5
:100F80000696FC0180819181FC018081082E000C75
:100F9000990BF9010995F801808389819A81880F5D
:100FA000991F9E012F5F3F4F820F931F0696FC01F2
:100FB00080819181FC0115821682178210868981B9
:100FC0009A81880F991F9E012F5F3F4F820F931FB9
:100FD0000696FC012081318189819A81880F991FB1
:100FE000AE014F5F5F4F840F951F0696FC01808115
:100FF0009181FC0185819681A781B0858C599F4F95
:10100000AF4FBF4FF90185839683A783B08789814E
:101010009A8101969A83898329813A818C819D8165
:101020002817390708F45CCF000080911E0188233F
:10103000E1F310921E0149CFA1E21A2EAA1BBB1B9D
:10104000FD010DC0AA1FBB1FEE1FFF1FA217B30794
:10105000E407F50720F0A21BB30BE40BF50B661FAA
:10106000771F881F991F1A9469F76095709580956E
:1010700090959B01AC01BD01CF010895EE0FFF1FBC
:101080000024001C0BBE0790F691E02D09940E94ED
:10109000F40808F481E008950E9460080C942F0978
:1010A0000E94280958F00E94210940F029F45F3F6E
:1010B00029F00C94180951110C9463090C941E0921
:1010C0000E94400968F39923B1F3552391F3951BCE
:1010D000550BBB27AA2762177307840738F09F5F59
:1010E0005F4F220F331F441FAA1FA9F335D00E2EC6
:1010F0003AF0E0E832D091505040E695001CCAF733
:101100002BD0FE2F29D0660F771F881FBB1F2617F5
:1011100037074807AB07B0E809F0BB0B802DBF01CC
:10112000FF2793585F4F3AF09E3F510578F00C949B
:1011300018090C9463095F3FE4F3983ED4F3869555
:1011400077956795B795F7959F5FC9F7880F911DBC
:101150009695879597F90895E1E0660F771F881FA8
:10116000BB1F621773078407BA0720F0621B730B5B
:10117000840BBA0BEE1F88F7E09508950E94C5080E
:101180006894B1110C94630908950E94480988F08D
:101190009F5798F0B92F9927B751B0F0E1F0660F3B
:1011A000771F881F991F1AF0BA95C9F714C0B1307C
:1011B00091F00E946209B1E008950C946209672FD2
:1011C000782F8827B85F39F0B93FCCF386957795AB
:1011D0006795B395D9F73EF4909580957095619594
:1011E0007F4F8F4F9F4F0895990F0008550FAA0BFF
:1011F000E0E8FEEF16161706E807F907C0F012162A
:101200001306E407F50798F0621B730B840B950B2C
:1012100039F40A2661F0232B242B252B21F4089581
:101220000A2609F4A140A6958FEF811D811D08951E
:1012300097F99F6780E870E060E008959FEF80EC89
:10124000089500240A94161617061806090608952C
:1012500000240A9412161306140605060895092E92
:101260000394000C11F4882352F0BB0F40F4BF2B01
:1012700011F460FF04C06F5F7F4F8F4F9F4F089541
:1012800057FD9058440F551F59F05F3F71F0479537
:10129000880F97FB991F61F09F3F79F0879508951C
:1012A000121613061406551FF2CF4695F1DF08C03B
:1012B000161617061806991FF1CF86957105610558
:1012C00008940895E894BB2766277727CB0197F900
:1012D00008950E94F40808F48FEF08950E94810990
:1012E0000C942F090E94210938F00E94280920F04F
:1012F000952311F00C9418090C941E0911240C94D8
:1013000063090E94400970F3959FC1F3950F50E067
:10131000551F629FF001729FBB27F00DB11D639FA7
:10132000AA27F00DB11DAA1F649F6627B00DA11D4D
:10133000661F829F2227B00DA11D621F739FB00DF3
:10134000A11D621F839FA00D611D221F749F332763
:10135000A00D611D231F849F600D211D822F762FFC
:101360006A2F11249F5750409AF0F1F088234AF0D9
:10137000EE0FFF1FBB1F661F771F881F9150504045
:10138000A9F79E3F510580F00C9418090C9463094D
:101390005F3FE4F3983ED4F3869577956795B795CC
:1013A000F795E7959F5FC1F7FE2B880F911D9695E6
:0A13B000879597F90895F894FFCF90
:1013BA00010000000000000200000000DB02000043
:0E13CA000000719DAE43A4D0A443A4D0824382
:00000001FF
